S01700004763634170706C69636174696F6E312E737265635B
S113000009C016C04EC058C113C012C011C010C0E0
S11300100FC00EC011241FBECFE9CDBF20E0A0E663
S1130020B0E001C01D92AB36B207E1F751D17AC1FD
S1130030E7CF009741F0EFE5F9E03197F1F700C021
S113004000000197F6CF0895C49A0895C4980895BE
S113005098B380E1892788BB0895C39A0895C3980B
S11300600895C1980895C19A0895BC9ABB9AB99A03
S1130070BD98C59A0895BA98C29A8BB780628BBF0F
S1130080AA9A089580916900813011F41092690050
S1130090089586B38695869591E08927817090E0CE
S11300A008951F920F920FB60F9211242F933F932E
S11300B04F935F936F937F938F939F93AF93BF936C
S11300C0EF93FF93F8948CE390E0B3DFF894E1DFCF
S11300D0892B21F081E08093690001C0D3DF7894FB
S11300E0FF91EF91BF91AF919F918F917F916F910C
S11300F05F914F913F912F910F900FBE0F901F90E2
S11301001895CF93DF9380916A008823A9F080919A
S11301106600909167000196909367008093660053
S11301208091660090916700859734F084E290E0B6
S113013090936700809366008091660090916700B9
S113014084974CF0B59904C010926A0088DF03C00C
S113015081E080936A00809160009091610018169C
S1130160190634F580916A00882311F180916000AA
S11301709091610001979093610080936000809159
S113018060009091610040970CF46DDF82E08093F1
S11301906A0080916000909161001816190684F03D
S11301A0109261001092600081E080936A0008C0A0
S11301B0109261001092600056DF84E090E002C06B
S11301C082E090E0C0916A00C11102C03FDF1CC010
S11301D0C13011F439DF18C0C230B1F4209162008B
S11301E0309163002F5F3F4F309363002093620090
S11301F02091620030916300821793072CF428DF6A
S11302001092630010926200D0916900D13069F5B8
S113021080916400909165000196909365008093AD
S1130220640080916400909165008D36910534F0EE
S1130230CC2331F010926A0012DF39C0C11137C0EB
S113024080916800813099F182E080936A0005DF33
S11302501092670010926600109263001092620080
S1130260109261001092600022C0109265001092FA
S1130270640080916800D817D1F0CC23C1F080913C
S1130280660090916700849794F08091600090914B
S11302906100181619065CF0E4DE84E190E09093A6
S11302A06100809360001092630010926200D0930A
S11302B06800DF91CF9108951F920F920FB60F92AD
S11302C01124F89478940F900FBE0F901F901895F6
S11302D010926800109267001092660010926500F8
S11302E010926400109263001092620010926100F8
S11302F010926000BADEB59904C010926A00AFDEB5
S113030004C081E080936A00A8DEB5DE1092690023
S1130310AADE7894F6DE8FE19DEF0197F1F700C035
S10B03200000F8CFF894FFCFB0
S9030000FC
