S01700004763634170706C69636174696F6E312E737265635B
S113000009C016C07BC045C113C012C011C010C0C6
S11300100FC00EC011241FBECFE9CDBF20E0A0E663
S1130020B0E001C01D92AA36B207E1F73ED14EC13D
S1130030E7CF009741F0EFE5F9E03197F1F700C021
S113004000000197F6CF0895C49A0895C4980895BE
S113005098B380E1892788BB0895C39A0895C3980B
S11300600895C1980895C19A0895BC9ABB9AB99A03
S1130070BD98C59A0895BA98C29A8BB780628BBF0F
S1130080AA9A089581E08093680010926500109206
S11300906400089580916800813079F58091690049
S11300A0811111C082E080936900D7DF109267004C
S11300B01092660010926300109262001092610028
S11300C01092600018C08091660090916700849738
S11300D094F08091600090916100181619065CF00C
S11300E0C0DF84E190E090936100809360001092FF
S11300F06300109262001092680008951F920F929C
S11301000FB60F9211242F933F934F935F936F93E6
S11301107F938F939F93AF93BF93EF93FF93F89441
S113012081E290E086DFF894B29902C0ABDF01C0AF
S1130130B1DF7894FF91EF91BF91AF919F918F912F
S11301407F916F915F914F913F912F910F900FBECF
S11301500F901F901895809168008130B1F48091C0
S1130160640090916500019690936500809364000B
S113017080916400909165008D36910554F0109241
S11301806900109268006BDF04C010926500109241
S11301906400809169008823A9F0809166009091A1
S11301A067000196909367008093660080916600D3
S11301B090916700859734F084E290E09093670013
S11301C080936600809166009091670084974CF05C
S11301D0B59904C01092690042DF03C081E08093A6
S11301E0690080916000909161001816190634F539
S11301F080916900882311F18091600090916100E1
S113020001979093610080936000809160009091C9
S1130210610040970CF427DF82E0809369008091AD
S11302206000909161001816190684F01092610024
S11302301092600081E08093690008C01092610010
S11302401092600010DF84E090E002C082E090E051
S113025020916900211101C0F9CE213009F4F4CEB6
S11302602230B1F420916200309163002F5F3F4F40
S11302703093630020936200209162003091630008
S1130280821793072CF4E4DE10926300109262004C
S113029008951F920F920FB60F921124F894789438
S11302A00F900FBE0F901F90189510926900109236
S11302B06800D9DED4DED9DEDEDE78944CDF8FE14F
S11302C09DEF0197F1F700C00000F8CFF894FFCF3D
S9030000FC
